{
  "_format": "hh-sol-artifact-1",
  "contractName": "testContract",
  "sourceName": "contracts/testContract.sol",
  "abi": [
    {
      "inputs": [],
      "stateMutability": "nonpayable",
      "type": "constructor"
    },
    {
      "anonymous": false,
      "inputs": [
        {
          "indexed": true,
          "internalType": "address",
          "name": "from",
          "type": "address"
        },
        {
          "indexed": false,
          "internalType": "uint256",
          "name": "timestamp",
          "type": "uint256"
        },
        {
          "indexed": false,
          "internalType": "string",
          "name": "message",
          "type": "string"
        }
      ],
      "name": "NewTest",
      "type": "event"
    },
    {
      "inputs": [],
      "name": "getAllTesters",
      "outputs": [
        {
          "components": [
            {
              "internalType": "address",
              "name": "user",
              "type": "address"
            },
            {
              "internalType": "string",
              "name": "message",
              "type": "string"
            },
            {
              "internalType": "uint256",
              "name": "timestamp",
              "type": "uint256"
            }
          ],
          "internalType": "struct testContract.People[]",
          "name": "",
          "type": "tuple[]"
        }
      ],
      "stateMutability": "view",
      "type": "function"
    },
    {
      "inputs": [],
      "name": "getTotalTests",
      "outputs": [
        {
          "internalType": "uint256",
          "name": "",
          "type": "uint256"
        }
      ],
      "stateMutability": "view",
      "type": "function"
    },
    {
      "inputs": [
        {
          "internalType": "uint256",
          "name": "",
          "type": "uint256"
        }
      ],
      "name": "ppl",
      "outputs": [
        {
          "internalType": "address",
          "name": "user",
          "type": "address"
        },
        {
          "internalType": "string",
          "name": "message",
          "type": "string"
        },
        {
          "internalType": "uint256",
          "name": "timestamp",
          "type": "uint256"
        }
      ],
      "stateMutability": "view",
      "type": "function"
    },
    {
      "inputs": [
        {
          "internalType": "string",
          "name": "_msg",
          "type": "string"
        }
      ],
      "name": "test",
      "outputs": [],
      "stateMutability": "nonpayable",
      "type": "function"
    }
  ],
  "bytecode": "0x60806040523480156200001157600080fd5b506200005d6040518060400160405280602081526020017f54686973206973206d79206c617465737420536d61727420436f6e74726163748152506200006360201b620004d01760201c565b620001f7565b62000103816040516024016200007a919062000170565b6040516020818303038152906040527f41304fac000000000000000000000000000000000000000000000000000000007bffffffffffffffffffffffffffffffffffffffffffffffffffffffff19166020820180517bffffffffffffffffffffffffffffffffffffffffffffffffffffffff83818316178352505050506200010660201b60201c565b50565b60008151905060006a636f6e736f6c652e6c6f679050602083016000808483855afa5050505050565b60006200013c8262000194565b6200014881856200019f565b93506200015a818560208601620001b0565b6200016581620001e6565b840191505092915050565b600060208201905081810360008301526200018c81846200012f565b905092915050565b600081519050919050565b600082825260208201905092915050565b60005b83811015620001d0578082015181840152602081019050620001b3565b83811115620001e0576000848401525b50505050565b6000601f19601f8301169050919050565b610de680620002076000396000f3fe608060405234801561001057600080fd5b506004361061004c5760003560e01c806326640039146100515780635ac94d1f1461006f578063e4b49cac1461008d578063f9fbd554146100bf575b600080fd5b6100596100db565b6040516100669190610abd565b60405180910390f35b610077610126565b6040516100849190610a49565b60405180910390f35b6100a760048036038101906100a2919061082b565b610277565b6040516100b693929190610a0b565b60405180910390f35b6100d960048036038101906100d491906107ea565b610359565b005b600061011e6040518060400160405280601381526020017f54657374287329206d61646520736f2066617200000000000000000000000000815250600054610569565b600054905090565b60606001805480602002602001604051908101604052809291908181526020016000905b8282101561026e57838290600052602060002090600302016040518060600160405290816000820160009054906101000a900473ffffffffffffffffffffffffffffffffffffffff1673ffffffffffffffffffffffffffffffffffffffff1673ffffffffffffffffffffffffffffffffffffffff1681526020016001820180546101d390610c98565b80601f01602080910402602001604051908101604052809291908181526020018280546101ff90610c98565b801561024c5780601f106102215761010080835404028352916020019161024c565b820191906000526020600020905b81548152906001019060200180831161022f57829003601f168201915b505050505081526020016002820154815250508152602001906001019061014a565b50505050905090565b6001818154811061028757600080fd5b90600052602060002090600302016000915090508060000160009054906101000a900473ffffffffffffffffffffffffffffffffffffffff16908060010180546102d090610c98565b80601f01602080910402602001604051908101604052809291908181526020018280546102fc90610c98565b80156103495780601f1061031e57610100808354040283529160200191610349565b820191906000526020600020905b81548152906001019060200180831161032c57829003601f168201915b5050505050908060020154905083565b600160008082825461036b9190610bc4565b92505081905550600160405180606001604052803373ffffffffffffffffffffffffffffffffffffffff16815260200183815260200142815250908060018154018082558091505060019003906000526020600020906003020160009091909190915060008201518160000160006101000a81548173ffffffffffffffffffffffffffffffffffffffff021916908373ffffffffffffffffffffffffffffffffffffffff16021790555060208201518160010190805190602001906104319291906106ca565b506040820151816002015550503373ffffffffffffffffffffffffffffffffffffffff167f1f4d7725f35767ac23961f616ac1443145e01faf53e17dd573cf18bf326cb3604283604051610486929190610ad8565b60405180910390a26104cd336040518060400160405280601081526020017f206a7573742072616e2061207465737400000000000000000000000000000000815250610605565b50565b610566816040516024016104e49190610a6b565b6040516020818303038152906040527f41304fac000000000000000000000000000000000000000000000000000000007bffffffffffffffffffffffffffffffffffffffffffffffffffffffff19166020820180517bffffffffffffffffffffffffffffffffffffffffffffffffffffffff83818316178352505050506106a1565b50565b610601828260405160240161057f929190610a8d565b6040516020818303038152906040527f9710a9d0000000000000000000000000000000000000000000000000000000007bffffffffffffffffffffffffffffffffffffffffffffffffffffffff19166020820180517bffffffffffffffffffffffffffffffffffffffffffffffffffffffff83818316178352505050506106a1565b5050565b61069d828260405160240161061b9291906109db565b6040516020818303038152906040527f759f86bb000000000000000000000000000000000000000000000000000000007bffffffffffffffffffffffffffffffffffffffffffffffffffffffff19166020820180517bffffffffffffffffffffffffffffffffffffffffffffffffffffffff83818316178352505050506106a1565b5050565b60008151905060006a636f6e736f6c652e6c6f679050602083016000808483855afa5050505050565b8280546106d690610c98565b90600052602060002090601f0160209004810192826106f8576000855561073f565b82601f1061071157805160ff191683800117855561073f565b8280016001018555821561073f579182015b8281111561073e578251825591602001919060010190610723565b5b50905061074c9190610750565b5090565b5b80821115610769576000816000905550600101610751565b5090565b600061078061077b84610b2d565b610b08565b90508281526020810184848401111561079857600080fd5b6107a3848285610c56565b509392505050565b600082601f8301126107bc57600080fd5b81356107cc84826020860161076d565b91505092915050565b6000813590506107e481610d99565b92915050565b6000602082840312156107fc57600080fd5b600082013567ffffffffffffffff81111561081657600080fd5b610822848285016107ab565b91505092915050565b60006020828403121561083d57600080fd5b600061084b848285016107d5565b91505092915050565b6000610860838361096d565b905092915050565b61087181610c1a565b82525050565b61088081610c1a565b82525050565b600061089182610b6e565b61089b8185610b91565b9350836020820285016108ad85610b5e565b8060005b858110156108e957848403895281516108ca8582610854565b94506108d583610b84565b925060208a019950506001810190506108b1565b50829750879550505050505092915050565b600061090682610b79565b6109108185610ba2565b9350610920818560208601610c65565b61092981610d88565b840191505092915050565b600061093f82610b79565b6109498185610bb3565b9350610959818560208601610c65565b61096281610d88565b840191505092915050565b60006060830160008301516109856000860182610868565b506020830151848203602086015261099d82826108fb565b91505060408301516109b260408601826109bd565b508091505092915050565b6109c681610c4c565b82525050565b6109d581610c4c565b82525050565b60006040820190506109f06000830185610877565b8181036020830152610a028184610934565b90509392505050565b6000606082019050610a206000830186610877565b8181036020830152610a328185610934565b9050610a4160408301846109cc565b949350505050565b60006020820190508181036000830152610a638184610886565b905092915050565b60006020820190508181036000830152610a858184610934565b905092915050565b60006040820190508181036000830152610aa78185610934565b9050610ab660208301846109cc565b9392505050565b6000602082019050610ad260008301846109cc565b92915050565b6000604082019050610aed60008301856109cc565b8181036020830152610aff8184610934565b90509392505050565b6000610b12610b23565b9050610b1e8282610cca565b919050565b6000604051905090565b600067ffffffffffffffff821115610b4857610b47610d59565b5b610b5182610d88565b9050602081019050919050565b6000819050602082019050919050565b600081519050919050565b600081519050919050565b6000602082019050919050565b600082825260208201905092915050565b600082825260208201905092915050565b600082825260208201905092915050565b6000610bcf82610c4c565b9150610bda83610c4c565b9250827fffffffffffffffffffffffffffffffffffffffffffffffffffffffffffffffff03821115610c0f57610c0e610cfb565b5b828201905092915050565b6000610c2582610c2c565b9050919050565b600073ffffffffffffffffffffffffffffffffffffffff82169050919050565b6000819050919050565b82818337600083830152505050565b60005b83811015610c83578082015181840152602081019050610c68565b83811115610c92576000848401525b50505050565b60006002820490506001821680610cb057607f821691505b60208210811415610cc457610cc3610d2a565b5b50919050565b610cd382610d88565b810181811067ffffffffffffffff82111715610cf257610cf1610d59565b5b80604052505050565b7f4e487b7100000000000000000000000000000000000000000000000000000000600052601160045260246000fd5b7f4e487b7100000000000000000000000000000000000000000000000000000000600052602260045260246000fd5b7f4e487b7100000000000000000000000000000000000000000000000000000000600052604160045260246000fd5b6000601f19601f8301169050919050565b610da281610c4c565b8114610dad57600080fd5b5056fea2646970667358221220421a0282aa6f98f53ba8b039ee85c5af141c19479b73ff4a70b4027486daf91264736f6c63430008040033",
  "linkReferences": {},
  "deployedLinkReferences": {}
}