{
  "_format": "hh-sol-artifact-1",
  "contractName": "testContract",
  "sourceName": "contracts/testContract.sol",
  "abi": [
    {
      "inputs": [],
      "stateMutability": "nonpayable",
      "type": "constructor"
    },
    {
      "inputs": [],
      "name": "getTotalTests",
      "outputs": [
        {
          "internalType": "uint256",
          "name": "",
          "type": "uint256"
        }
      ],
      "stateMutability": "view",
      "type": "function"
    },
    {
      "inputs": [
        {
          "internalType": "uint256",
          "name": "",
          "type": "uint256"
        }
      ],
      "name": "ppl",
      "outputs": [
        {
          "internalType": "string",
          "name": "name",
          "type": "string"
        },
        {
          "internalType": "uint256",
          "name": "age",
          "type": "uint256"
        },
        {
          "internalType": "string",
          "name": "sex",
          "type": "string"
        }
      ],
      "stateMutability": "view",
      "type": "function"
    },
    {
      "inputs": [],
      "name": "test",
      "outputs": [],
      "stateMutability": "nonpayable",
      "type": "function"
    }
  ],
  "bytecode": "0x60806040523480156200001157600080fd5b50600160405180606001604052806040518060400160405280601181526020017f4562696d6f626f77656920506f6e6465690000000000000000000000000000008152508152602001601981526020016040518060400160405280600481526020017f4d616c650000000000000000000000000000000000000000000000000000000081525081525090806001815401808255809150506001900390600052602060002090600302016000909190919091506000820151816000019080519060200190620000e19291906200031d565b506020820151816001015560408201518160020190805190602001906200010a9291906200031d565b5050506200020060016000815481106200014d577f4e487b7100000000000000000000000000000000000000000000000000000000600052603260045260246000fd5b906000526020600020906003020160000180546200016b9062000484565b80601f0160208091040260200160405190810160405280929190818152602001828054620001999062000484565b8015620001ea5780601f10620001be57610100808354040283529160200191620001ea565b820191906000526020600020905b815481529060010190602001808311620001cc57829003601f168201915b50505050506200025160201b6200028f1760201c565b6200024b6040518060400160405280602081526020017f54686973206973206d79206c617465737420536d61727420436f6e74726163748152506200025160201b6200028f1760201c565b620004fa565b620002f1816040516024016200026891906200040e565b6040516020818303038152906040527f41304fac000000000000000000000000000000000000000000000000000000007bffffffffffffffffffffffffffffffffffffffffffffffffffffffff19166020820180517bffffffffffffffffffffffffffffffffffffffffffffffffffffffff8381831617835250505050620002f460201b60201c565b50565b60008151905060006a636f6e736f6c652e6c6f679050602083016000808483855afa5050505050565b8280546200032b9062000484565b90600052602060002090601f0160209004810192826200034f57600085556200039b565b82601f106200036a57805160ff19168380011785556200039b565b828001600101855582156200039b579182015b828111156200039a5782518255916020019190600101906200037d565b5b509050620003aa9190620003ae565b5090565b5b80821115620003c9576000816000905550600101620003af565b5090565b6000620003da8262000432565b620003e681856200043d565b9350620003f88185602086016200044e565b6200040381620004e9565b840191505092915050565b600060208201905081810360008301526200042a8184620003cd565b905092915050565b600081519050919050565b600082825260208201905092915050565b60005b838110156200046e57808201518184015260208101905062000451565b838111156200047e576000848401525b50505050565b600060028204905060018216806200049d57607f821691505b60208210811415620004b457620004b3620004ba565b5b50919050565b7f4e487b7100000000000000000000000000000000000000000000000000000000600052602260045260246000fd5b6000601f19601f8301169050919050565b6107cf806200050a6000396000f3fe608060405234801561001057600080fd5b50600436106100415760003560e01c80632664003914610046578063e4b49cac14610064578063f8a8fd6d14610096575b600080fd5b61004e6100a0565b60405161005b91906105e5565b60405180910390f35b61007e6004803603810190610079919061049e565b6100eb565b60405161008d939291906105a0565b60405180910390f35b61009e610235565b005b60006100e36040518060400160405280601381526020017f54657374287329206d61646520736f2066617200000000000000000000000000815250600054610328565b600054905090565b600181815481106100fb57600080fd5b906000526020600020906003020160009150905080600001805461011e906106e1565b80601f016020809104026020016040519081016040528092919081815260200182805461014a906106e1565b80156101975780601f1061016c57610100808354040283529160200191610197565b820191906000526020600020905b81548152906001019060200180831161017a57829003601f168201915b5050505050908060010154908060020180546101b2906106e1565b80601f01602080910402602001604051908101604052809291908181526020018280546101de906106e1565b801561022b5780601f106102005761010080835404028352916020019161022b565b820191906000526020600020905b81548152906001019060200180831161020e57829003601f168201915b5050505050905083565b6001600080828254610247919061061c565b9250508190555061028d336040518060400160405280601081526020017f206a7573742072616e20612074657374000000000000000000000000000000008152506103c4565b565b610325816040516024016102a3919061054e565b6040516020818303038152906040527f41304fac000000000000000000000000000000000000000000000000000000007bffffffffffffffffffffffffffffffffffffffffffffffffffffffff19166020820180517bffffffffffffffffffffffffffffffffffffffffffffffffffffffff8381831617835250505050610460565b50565b6103c0828260405160240161033e929190610570565b6040516020818303038152906040527f9710a9d0000000000000000000000000000000000000000000000000000000007bffffffffffffffffffffffffffffffffffffffffffffffffffffffff19166020820180517bffffffffffffffffffffffffffffffffffffffffffffffffffffffff8381831617835250505050610460565b5050565b61045c82826040516024016103da92919061051e565b6040516020818303038152906040527f759f86bb000000000000000000000000000000000000000000000000000000007bffffffffffffffffffffffffffffffffffffffffffffffffffffffff19166020820180517bffffffffffffffffffffffffffffffffffffffffffffffffffffffff8381831617835250505050610460565b5050565b60008151905060006a636f6e736f6c652e6c6f679050602083016000808483855afa5050505050565b60008135905061049881610782565b92915050565b6000602082840312156104b057600080fd5b60006104be84828501610489565b91505092915050565b6104d081610672565b82525050565b60006104e182610600565b6104eb818561060b565b93506104fb8185602086016106ae565b61050481610771565b840191505092915050565b610518816106a4565b82525050565b600060408201905061053360008301856104c7565b818103602083015261054581846104d6565b90509392505050565b6000602082019050818103600083015261056881846104d6565b905092915050565b6000604082019050818103600083015261058a81856104d6565b9050610599602083018461050f565b9392505050565b600060608201905081810360008301526105ba81866104d6565b90506105c9602083018561050f565b81810360408301526105db81846104d6565b9050949350505050565b60006020820190506105fa600083018461050f565b92915050565b600081519050919050565b600082825260208201905092915050565b6000610627826106a4565b9150610632836106a4565b9250827fffffffffffffffffffffffffffffffffffffffffffffffffffffffffffffffff0382111561066757610666610713565b5b828201905092915050565b600061067d82610684565b9050919050565b600073ffffffffffffffffffffffffffffffffffffffff82169050919050565b6000819050919050565b60005b838110156106cc5780820151818401526020810190506106b1565b838111156106db576000848401525b50505050565b600060028204905060018216806106f957607f821691505b6020821081141561070d5761070c610742565b5b50919050565b7f4e487b7100000000000000000000000000000000000000000000000000000000600052601160045260246000fd5b7f4e487b7100000000000000000000000000000000000000000000000000000000600052602260045260246000fd5b6000601f19601f8301169050919050565b61078b816106a4565b811461079657600080fd5b5056fea264697066735822122037122aff6bbd8e52e11357c04111ea4803a7b8b49151754fbaa81b1eee84903c64736f6c63430008040033",
  "linkReferences": {},
  "deployedLinkReferences": {}
}